:100000000C9462000C948A000C948A000C948A0070
:100010000C948A000C948A000C948A000C948A0038
:100020000C948A000C948A000C948A000C948A0028
:100030000C948A000C948A000C948A000C948A0018
:100040000C9431020C948A000C948A000C948A005F
:100050000C948A000C948A000C948A000C948A00F8
:100060000C947B020C948A000000000024002700FE
:100070002A000000000023002600290000000000E4
:10008000250028002B0004040404040404040202D4
:100090000202020203030303030301020408102007
:1000A0004080010204081020010204081020000012
:1000B0000008000201000003040700000000000027
:1000C00000001C0511241FBECFEFD8E0DEBFCDBF5E
:1000D00011E0A0E0B1E0EAE6FAE002C005900D927E
:1000E000A231B107D9F721E0A2E1B1E001C01D9230
:1000F000A13EB207E1F710E0C2E6D0E004C02197CC
:10010000FE010E942D05C136D107C9F70E949A034E
:100110000C9433050C940000833081F028F4813076
:1001200099F08230A9F008958730A9F08830C9F09D
:100130008430B1F4809180008F7D03C08091800075
:100140008F7780938000089584B58F7784BD08955C
:1001500084B58F7DFBCF8091B0008F778093B00006
:1001600008958091B0008F7DF9CF1F93CF93DF93D7
:10017000282F30E0F901E255FF4F8491F901E6564E
:10018000FF4FD491F901EA57FF4FC491CC23A9F056
:10019000162F81110E948C00EC2FF0E0EE0FFF1F54
:1001A000E458FF4FA591B4918FB7F894EC911111D9
:1001B00008C0D095DE23DC938FBFDF91CF911F91D4
:1001C0000895DE2BF8CF3FB7F8948091DD01909130
:1001D000DE01A091DF01B091E00126B5A89B05C02A
:1001E0002F3F19F00196A11DB11D3FBFBA2FA92FB6
:1001F000982F8827BC01CD01620F711D811D911DB3
:1002000042E0660F771F881F991F4A95D1F708951E
:100210000895089520915301260F3327331F21326B
:100220003105ECF42091A201FC0190E080E0243043
:1002300069F082E00895A09153012191AC014D5CD9
:100240005E4FA40FB52FB11D2C930196861798F31E
:1002500080915301680F6093530180E0089581E01D
:1002600008951092A20181E08093A10110927C0177
:1002700061E082E10E94B50061E083E10E94B50087
:10028000E9EBF0E080818E7F808380818D7F8083A9
:1002900088E48093B80085E48093BC000895CF93F0
:1002A000DF9391E0909332018823B9F0C091B800B8
:1002B000D091BA008091BC008A7B8093BC0060E042
:1002C00082E10E94B50060E083E10E94B5000E94D7
:1002D0003101D093BA00C093B800DF91CF91089557
:1002E0000895E0917B0180917A01E81730F4F0E005
:1002F000EE5EFE4F808190E008958FEF9FEF0895AE
:1003000090917B0180917A012FEF3FEF981748F48D
:10031000E92FF0E0EE5EFE4F208130E09F5F90938A
:100320007B01C901089580917A0190917B01891B1D
:10033000990B0895CF92DF92EF92FF920F931F9344
:10034000CF93DF937C01CB018A012091CB01222343
:1003500089F0EB016B01C40ED51ECC15DD0569F0EB
:100360006991D701ED91FC910190F081E02DC701D9
:100370000995F3CF642F0E940A01C801DF91CF9144
:100380001F910F91FF90EF90DF90CF900895CF9342
:10039000DF931F92CDB7DEB769832091CB01222373
:1003A000F9F02091C801203258F021E030E0FC0142
:1003B0003383228390E080E00F90DF91CF91089506
:1003C0008091C901E82FF0E0E855FE4F99819083B4
:1003D0008F5F8093C9018093C80181E090E0ECCFEA
:1003E00061E0CE0101960E940A01F7CF90E080E023
:1003F000089585ED8093BC008091A4019091A501A2
:10040000A091A601B091A7010796A11DB11D23E0FF
:10041000B695A795979587952A95D1F72091BC0019
:1004200024FD03C01092A20108954091A4015091AF
:10043000A5016091A6017091A701452B462B472B82
:1004400069F30097A105B10541F02AE22A95F1F779
:1004500000C00197A109B109E1CF8091A3010C94DB
:100460004F011F920F920FB60F9211242F933F93BB
:100470008F939F93AF93BF938091D9019091DA01AD
:10048000A091DB01B091DC013091D80123E0230F72
:100490002D3758F50196A11DB11D2093D8018093E9
:1004A000D9019093DA01A093DB01B093DC01809134
:1004B000DD019091DE01A091DF01B091E001019694
:1004C000A11DB11D8093DD019093DE01A093DF019A
:1004D000B093E001BF91AF919F918F913F912F9188
:1004E0000F900FBE0F901F90189526E8230F0296CD
:1004F000A11DB11DD2CF1F920F920FB60F921124E2
:100500002F933F934F935F936F937F938F939F931B
:10051000AF93BF93EF93FF938091B900887F8036AC
:1005200009F44AC0F0F5883209F4A7C018F5803103
:1005300009F49BC0B8F4882309F4F9C0883009F4A1
:1005400094C0FF91EF91BF91AF919F918F917F9157
:100550006F915F914F913F912F910F900FBE0F9030
:100560001F901895883109F488C0803251F7809324
:10057000A00114C0803409F49DC040F48033B9F365
:100580008833F9F68093A00185ECB0C0803509F47A
:1005900085C0883509F496C0883499F60E94F9011F
:1005A000D0CF883909F48CC038F5883729F050F459
:1005B000883611F0803729F683E08093A2011092EB
:1005C000750157C0883809F47BC0803919F080382C
:1005D00009F0B7CF80917501803208F071C0E091C9
:1005E000750181E08E0F809375018091BB00F0E072
:1005F000EB5AFE4F80833DC0803B39F0E0F4803AF7
:1006000009F479C0883A09F09CCF84E08093A20174
:100610001092540110925301E0917801F091790108
:1006200009958091530181110FC081E0809353019E
:100630001092330109C0803C09F4A6CF883C09F42C
:10064000A3CF883B09F07DCFE091540181E08E0F6C
:1006500080935401F0E0ED5CFE4F80818093BB00FD
:10066000909154018091530129C080917D01809324
:10067000BB0085EC8093BC0064CF90919F0180917A
:100680009E01981758F5E0919F0181E08E0F8093AD
:100690009F01F0E0E258FE4F8081E9CFE0919F0199
:1006A00081E08E0F80939F018091BB00F0E0E258C3
:1006B000FE4F808390919F0180919E019817C8F210
:1006C00085E8D8CFE0919F0181E08E0F80939F0154
:1006D0008091BB00F0E0E258FE4F80838091A10141
:1006E00081115CCF81E080937C0184EA8093BC001F
:1006F0001092A20126CF85EC8093BC001092A2013B
:1007000080917501803230F4E0917501F0E0EB5A90
:10071000FE4F10826091750170E0E0917601F091DA
:10072000770185E591E00995109275010ACF109245
:10073000A00134CF789484B5826084BD84B5816093
:1007400084BD85B5826085BD85B5816085BD80919C
:100750006E00816080936E00109281008091810014
:10076000826080938100809181008160809381000C
:10077000809180008160809380008091B1008460CE
:100780008093B1008091B00081608093B00080912F
:100790007A00846080937A0080917A0082608093EE
:1007A0007A0080917A00816080937A0080917A004B
:1007B000806880937A001092C10010927B011092A1
:1007C0007A011092C9011092C8010E94310188E09B
:1007D00091E0909379018093780189E091E0909382
:1007E00077018093760188E08093BA00C7EAD0E071
:1007F000FE01249103E910E0F80184918823C9F0F7
:1008000090E0880F991FFC01E859FF4FA591B49122
:10081000FC01E458FF4F459154913FB7F8949C91E7
:10082000822F809598239C93FA019081892380835D
:100830003FBF9BEBC92E90E0D92E25EC322E30E045
:10084000A32E30E0B32EFF24F39444E0842E52E034
:10085000952EEE24EA94F6018491FE017490F8013D
:10086000649061107DC0F092CB018092CA01109219
:10087000C9011092C80161E08CEC91E00E94C701AF
:100880002090C801F0E2F21508F4A5C00E94E30030
:100890002B013C018091A201811178C09092A201AC
:1008A000F092A101E092A00110929F0120929E017E
:1008B000A8EAB1E0EEE7F1E0281294C010927D01C1
:1008C00080917D01886080937D0180917C018130E1
:1008D00009F08CC010927C010E94E3002B013C01C6
:1008E00080917D018093BB008091A4019091A5012E
:1008F000A091A601B091A701892B8A2B8B2BA1F087
:100900000E94E3002091A4013091A5014091A6012D
:100910005091A701641975098609970926173707A9
:100920004807590708F453C08091BC0083FDD8CF15
:100930003092BC000E94E3002B013C018091A20197
:10094000823009F457C08091A0018F3F09F443C061
:100950008091A001803209F43EC08091A0013BC08B
:1009600081110E948C00E62DF0E0EE0FFF1FEE5883
:10097000FF4FA591B4918C91782209F474CFA11402
:10098000B10409F468CF0E94000065CF8091A401F2
:100990009091A501A091A601B091A701892B8A2B66
:1009A0008B2B09F477CF0E94E3002091A4013091B2
:1009B000A5014091A6015091A70164197509860906
:1009C0009709261737074807590708F063CF809122
:1009D000A3010E944F011092C9011092C801109208
:1009E000CB01CDCF9D9191938F5F66CF85EE8093A4
:1009F000BC00A0CF8091A4019091A501A091A60177
:100A0000B091A701892B8A2B8B2B09F497CF0E94D9
:100A1000E3002091A4013091A5014091A6015091DD
:100A2000A70164197509860997092617370748072A
:100A3000590708F083CFCBCFECECF1E013821282A0
:100A400088EE93E0A0E0B0E084839583A683B7832B
:100A500084E091E0918380830895EE0FFF1F05905D
:0A0A6000F491E02D0994F894FFCF03
:100A6A0000000000C7019A01F6017001930180019C
:020A7A00710108
:00000001FF
