:020000040000FA
:100000000C9462000C948A000C948A000C948A0070
:100010000C948A000C948A000C948A000C948A0038
:100020000C948A000C948A000C948A000C948A0028
:100030000C948A000C948A000C948A000C948A0018
:100040000C949A030C948A000C940A040C94E40314
:100050000C948A000C948A000C948A000C948A00F8
:100060000C948A000C948A000000000023002600F3
:10007000290000000000240027002A0000000000E2
:10008000250028002B0004040404040404040202D4
:100090000202020203030303030301020408102007
:1000A0004080010204081020010204081020000012
:1000B0000008000201000003040700000000000027
:1000C0000000E00511241FBECFEFD8E0DEBFCDBF9A
:1000D00011E0A0E0B1E0E4EFF0E102C005900D9284
:1000E000A434B107D9F721E0A4E4B1E001C01D9226
:1000F000AA3EB207E1F710E0C2E6D0E004C02197C3
:10010000FE010E947208C136D107C9F70E9481041E
:100110000C9478080C94000090E0FC01E255FF4F2D
:100120002491FC01E656FF4F3491FC01EA57FF4F42
:10013000E491EE23C9F0222339F0233001F1A8F431
:10014000213019F1223029F1F0E0EE0FFF1FE458C1
:10015000FF4FA591B4918FB7F894EC91611126C02F
:1001600030953E233C938FBF08952730A9F0283067
:10017000C9F0243049F7809180008F7D03C08091C1
:1001800080008F7780938000DFCF84B58F7784BD28
:10019000DBCF84B58F7DFBCF8091B0008F778093CC
:1001A000B000D2CF8091B0008F7DF9CF3E2BDACF57
:1001B000CF93DF9390E0FC01E656FF4F24918A57DE
:1001C0009F4FFC0184918823D1F090E0880F991F04
:1001D000FC01EE58FF4FA591B491FC01E458FF4F8C
:1001E000C591D49161110EC09FB7F8948C91E22F04
:1001F000E0958E238C932881E223E8839FBFDF91D3
:10020000CF9108958FB7F894EC91E22BEC938FBFC8
:10021000F6CF3FB7F8948091490190914A01A0919F
:100220004B01B0914C0126B5A89B05C02F3F19F09A
:100230000196A11DB11D3FBFBA2FA92F982F882766
:10024000BC01CD01620F711D811D911D42E0660F41
:10025000771F881F991F4A95D1F708958F929F9213
:10026000AF92BF92CF92DF92EF92FF924B015C016F
:100270000E9409016B017C010E9409016C197D0932
:100280008E099F09683E734081059105A8F321E01E
:10029000821A9108A108B10888EEC80E83E0D81E22
:1002A000E11CF11C81149104A104B10429F7FF9011
:1002B000EF90DF90CF90BF90AF909F908F90089578
:1002C000AF92BF92CF92DF92EF92FF920F931F9364
:1002D000CF93DF936C017B018B01040F151FEB01A2
:1002E0005E01AE18BF08C017D10759F06991D60159
:1002F000ED91FC910190F081E02DC6010995892BCB
:1003000079F7C501DF91CF911F910F91FF90EF9089
:10031000DF90CF90BF90AF900895FC01538D448D36
:10032000252F30E0842F90E0821B930B541710F0A0
:10033000CF96089501970895FC01918D828D9817AD
:1003400061F0A28DAE0FBF2FB11D5D968C91928D85
:100350009F5F9F73928F90E008958FEF9FEF0895B6
:10036000FC01918D828D981731F0828DE80FF11D7F
:10037000858D90E008958FEF9FEF0895FC01918D9A
:10038000228D892F90E0805C9F4F821B91098F7393
:10039000992708958DE491E00E94BE0121E0892B08
:1003A00009F420E0822F089580E090E0892B29F065
:1003B0000E94CA0181110C9400000895FC01A48DD3
:1003C000A80FB92FB11DA35ABF4F2C91848D90E077
:1003D00001968F739927848FA689B7892C93A0895A
:1003E000B1898C91837080648C93938D848D9813E4
:1003F00006C00288F389E02D80818F7D8083089577
:10040000EF92FF920F931F93CF93DF93EC0181E064
:10041000888F9B8D8C8D98131AC0E889F98980810B
:1004200085FF15C09FB7F894EE89FF896083E8893E
:10043000F98980818370806480839FBF81E090E030
:10044000DF91CF911F910F91FF90EF900895F62EBD
:100450000B8D10E00F5F1F4F0F731127E02E8C8D57
:100460008E110CC00FB607FCFACFE889F98980819C
:1004700085FFF5CFCE010E94DE01F1CFEB8DEC0FB1
:10048000FD2FF11DE35AFF4FF0829FB7F8940B8FB9
:10049000EA89FB8980818062CFCFCF93DF93EC0123
:1004A000888D8823B9F0AA89BB89E889F9898C915C
:1004B00085FD03C0808186FD0DC00FB607FCF7CF18
:1004C0008C9185FFF2CF808185FFEDCFCE010E9418
:1004D000DE01E9CFDF91CF910895FC01019000206A
:1004E000E9F73197AF01481B590BBC018DE491E04E
:1004F0000C9460018F929F92AF92BF920F931F93C3
:10050000CF93DF93CDB7DEB7A1970FB6F894DEBFD8
:100510000FBECDBF19A2423008F44AE08E010F5D34
:100520001F4F842E912CB12CA12CA50194010E9467
:100530005008E62FB901CA01EA30F4F4E05DD801B1
:10054000EE938D01232B242B252B79F790E080E06F
:10055000109719F0CD010E946D02A1960FB6F89484
:10056000DEBF0FBECDBFDF91CF911F910F91BF9026
:10057000AF909F908F900895E95CE1CF4F925F928A
:100580006F927F928F929F92AF92BF92CF92DF92A3
:10059000EF92FF920F931F93CF936B017C01742E08
:1005A000AC019B010E944B08882399F082E191E005
:1005B000CF911F910F91FF90EF90DF90CF90BF9060
:1005C000AF909F908F907F906F905F904F900C9422
:1005D0006D0246015701E894B7F82FEF3FEF4FE760
:1005E0005FE7C501B4010E944B0881110DC02FEFD8
:1005F0003FEF4FE75FE7C501B4010E947A06181686
:100600001CF486E191E0D4CF2FEF3FEF4FE75FE49A
:10061000C701B6010E94D90718161CF48AE191E0BF
:10062000C7CF2FEF3FEF4FE75FECC701B6010E9446
:100630007A0687FDF3CF20E030E0A901C701B601BB
:100640000E947A0610E000E087FF0AC06DE28DE4A8
:1006500091E00E9400028C01F7FAF094F7F8F09410
:10066000C0E060E070E080E09FE37C1641F020E0B5
:1006700030E040E251E40E947F06CF5FF6CFA70151
:1006800096010E940E062B013C010E94F8064B01C8
:100690005C014AE00E947A027C01E00EF11ECC234C
:1006A000C1F1C501B4010E9427079B01AC01C30140
:1006B000B2010E940D064B015C016EE28DE491E0F7
:1006C0000E940002E80EF91EC15018F120E030E04F
:1006D00040E251E4C501B4010E94DE072B013C0158
:1006E0000E94F8064B01B12CA12C4AE0C501B401CF
:1006F0000E947A02E80EF91EC501B4010E94270784
:100700009B01AC01C301B2010E940D064B015C01CB
:10071000DBCFC701CF911F910F91FF90EF90DF903A
:10072000CF90BF90AF909F908F907F906F905F9091
:100730004F9008951F920F920FB60F9211242F938E
:100740003F938F939F93AF93BF9380914501909177
:100750004601A0914701B09148013091440123E046
:10076000230F2D3758F50196A11DB11D209344018B
:100770008093450190934601A0934701B0934801AF
:100780008091490190914A01A0914B01B0914C0197
:100790000196A11DB11D8093490190934A01A09338
:1007A0004B01B0934C01BF91AF919F918F913F91BD
:1007B0002F910F900FBE0F901F90189526E8230FD2
:1007C0000296A11DB11DD2CF1F920F920FB60F92AC
:1007D00011242F933F934F935F936F937F938F9346
:1007E0009F93AF93BF93EF93FF938DE491E00E94AB
:1007F000DE01FF91EF91BF91AF919F918F917F911A
:100800006F915F914F913F912F910F900FBE0F907D
:100810001F9018951F920F920FB60F9211242F93CD
:100820008F939F93EF93FF93E0915D01F0915E01B1
:100830008081E0916301F091640182FD1BC0908191
:10084000809166018F5F8F7320916701821741F05D
:10085000E0916601F0E0E35BFE4F958F80936601C7
:10086000FF91EF919F918F912F910F900FBE0F905D
:100870001F9018958081F4CFCF92DF92EF92FF9274
:100880000F931F93E82FF92F05C00150110921097B
:10089000310961F1908196239417B9F305C0015095
:1008A00011092109310911F1908196239413F7CF91
:1008B000C12CD12CE12CF12C0AC08FEFC81AD80A18
:1008C000E80AF80A0C151D052E053F0579F0808110
:1008D0008623841791F36C2D7D2D8E2D9F2D1F91D6
:1008E0000F91FF90EF90DF90CF90089560E070E05F
:1008F00080E090E01F910F91FF90EF90DF90CF90FC
:100900000895789484B5826084BD84B5816084BD87
:1009100085B5826085BD85B5816085BD80916E009D
:10092000816080936E0010928100809181008260CE
:10093000809381008091810081608093810080910B
:1009400080008160809380008091B10084608093FA
:10095000B1008091B00081608093B00080917A00F6
:10096000846080937A0080917A00826080937A001C
:1009700080917A00816080937A0080917A0080680B
:1009800080937A001092C10061E08DE00E94D8004F
:1009900060E08CE00E94D80061E08BE00E94D8000B
:1009A000E0915D01F0915E0182E08083E091590168
:1009B000F0915A011082E0915B01F0915C018FECA3
:1009C000808310926501E0916101F091620186E0FF
:1009D0008083E0915F01F09160018081806180837C
:1009E000E0915F01F0916001808188608083E091F7
:1009F0005F01F0916001808180688083E0915F01F8
:100A0000F091600180818F7D8083C3E0D0E093E22C
:100A1000A92EB12C22E9222E20E0322E30E0832EA6
:100A200030E0932E80E480937C0080917A00806493
:100A300080937A0080917A0086FDFCCF60917800E7
:100A400070917900072E000C880B990B0E942907E2
:100A50006B017C0120E030E040EA50E40E94DE07B8
:100A600020E030EC4FE754E40E947F062B013C016C
:100A700042E0C701B6010E94BE028EE191E00E94F1
:100A80006D0242E0C301B2010E94BE0280E291E029
:100A90000E946D0264E670E080E090E00E942E010A
:100AA00060E08DE00E948C00CE010197F1F761E0DB
:100AB0008DE00E948C00C5010197F1F760E08DE0A8
:100AC0000E948C00E6EAF0E06491F1018491E82F45
:100AD000F0E0EE0FFF1FE859FF4F8591949100E47D
:100AE00012E42FE030E0462F0E943C0461157105AE
:100AF0008105910529F06F5F7F4F8F4F9F4F9F704A
:100B00000E94290726E933E44BE05DE30E94DE07FB
:100B100020E030E040E05FE30E94DE070E94F10643
:100B20006B017C0183E291E00E946D024AE0C70103
:100B3000B601F7FE0DC06DE28DE491E00E94000267
:100B400066277727CB016C197D098E099F094AE03A
:100B50000E947A028FE391E00E946D0280E291E0B0
:100B60000E946D0264E670E080E090E00E942E0139
:100B700020E030E040E450E4C301B2010E94D90714
:100B8000181644F461E0FCE2CF16F1E0DF06E10460
:100B9000F1040CF060E08BE00E948C0064EF71E0E7
:100BA00080E090E00E942E018114910409F43ACF74
:100BB0000E94CA01882309F435CF0E94000032CF79
:100BC000EDE4F1E01382128288EE93E0A0E0B0E061
:100BD00084839583A683B78384E091E091838083A7
:100BE00085EC90E09587848784EC90E097878687F2
:100BF00080EC90E0918B808B81EC90E0938B828BEA
:100C000082EC90E0958B848B86EC90E0978B868BC2
:100C1000118E128E138E148E08955058BB27AA275A
:100C20000E9425060C949F070E94910738F00E94AD
:100C3000980720F039F49F3F19F426F40C948E079E
:100C40000EF4E095E7FB0C948807E92F0E94B007AB
:100C500058F3BA17620773078407950720F079F4F1
:100C6000A6F50C94D2070EF4E0950B2EBA2FA02D0A
:100C70000B01B90190010C01CA01A0011124FF2749
:100C8000591B99F0593F50F4503E68F11A16F04044
:100C9000A22F232F342F4427585FF3CF4695379543
:100CA0002795A795F0405395C9F77EF41F16BA0B08
:100CB000620B730B840BBAF09150A1F0FF0FBB1FB6
:100CC000661F771F881FC2F70EC0BA0F621F731FFF
:100CD000841F48F4879577956795B795F7959E3F5C
:100CE00008F0B0CF9395880F08F09927EE0F9795ED
:100CF000879508950E94640708F481E008950E9492
:100D000093060C949F070E94980758F00E94910741
:100D100040F029F45F3F29F00C94880751110C949E
:100D2000D3070C948E070E94B00768F39923B1F3A0
:100D3000552391F3951B550BBB27AA276217730701
:100D4000840738F09F5F5F4F220F331F441FAA1F95
:100D5000A9F335D00E2E3AF0E0E832D09150504051
:100D6000E695001CCAF72BD0FE2F29D0660F771FFF
:100D7000881FBB1F261737074807AB07B0E809F0E5
:100D8000BB0B802DBF01FF2793585F4F3AF09E3F6A
:100D9000510578F00C9488070C94D3075F3FE4F377
:100DA000983ED4F3869577956795B795F7959F5FAD
:100DB000C9F7880F911D9695879597F90895E1E0F9
:100DC000660F771F881FBB1F621773078407BA0758
:100DD00020F0621B730B840BBA0BEE1F88F7E095B3
:100DE00008950E94F8066894B1110C94D3070895F1
:100DF0000E94B80788F09F5798F0B92F9927B751EC
:100E0000B0F0E1F0660F771F881F991F1AF0BA95AE
:100E1000C9F714C0B13091F00E94D207B1E0089533
:100E20000C94D207672F782F8827B85F39F0B93F25
:100E3000CCF3869577956795B395D9F73EF4909561
:100E40008095709561957F4F8F4F9F4F0895E894DF
:100E500009C097FB3EF490958095709561957F4F02
:100E60008F4F9F4F9923A9F0F92F96E9BB279395B0
:100E7000F695879577956795B795F111F8CFFAF4C0
:100E8000BB0F11F460FF1BC06F5F7F4F8F4F9F4FF1
:100E900016C0882311F096E911C0772321F09EE84F
:100EA000872F762F05C0662371F096E8862F70E0B5
:100EB00060E02AF09A95660F771F881FDAF7880F8F
:100EC0009695879597F90895990F0008550FAA0BE5
:100ED000E0E8FEEF16161706E807F907C0F012164D
:100EE0001306E407F50798F0621B730B840B950B50
:100EF00039F40A2661F0232B242B252B21F40895A5
:100F00000A2609F4A140A6958FEF811D811D089541
:100F100097F99F6780E870E060E008959FEF80ECAC
:100F2000089500240A94161617061806090608954F
:100F300000240A9412161306140605060895092EB5
:100F40000394000C11F4882352F0BB0F40F4BF2B24
:100F500011F460FF04C06F5F7F4F8F4F9F4F089564
:100F600057FD9058440F551F59F05F3F71F047955A
:100F7000880F97FB991F61F09F3F79F0879508953F
:100F8000121613061406551FF2CF4695F1DF08C05E
:100F9000161617061806991FF1CF8695710561057B
:100FA00008940895E894BB2766277727CB0197F923
:100FB00008950E94640708F48FEF08950E94F107D6
:100FC0000C949F070E94910738F00E94980720F028
:100FD000952311F00C9488070C948E0711240C941F
:100FE000D3070E94B00770F3959FC1F3950F50E0AF
:100FF000551F629FF001729FBB27F00DB11D639FCB
:10100000AA27F00DB11DAA1F649F6627B00DA11D70
:10101000661F829F2227B00DA11D621F739FB00D16
:10102000A11D621F839FA00D611D221F749F332786
:10103000A00D611D231F849F600D211D822F762F1F
:101040006A2F11249F5750409AF0F1F088234AF0FC
:10105000EE0FFF1FBB1F661F771F881F9150504068
:10106000A9F79E3F510580F00C9488070C94D30794
:101070005F3FE4F3983ED4F3869577956795B795EF
:10108000F795E7959F5FC1F7FE2B880F911D969509
:10109000879597F908950E946407880B990B089526
:1010A000A1E21A2EAA1BBB1BFD010DC0AA1FBB1F6C
:1010B000EE1FFF1FA217B307E407F50720F0A21BDE
:1010C000B30BE40BF50B661F771F881F991F1A944B
:1010D00069F760957095809590959B01AC01BD0175
:1010E000CF010895EE0FFF1F0590F491E02D0994B4
:1010F000F894FFCF00000000000260018D014D0256
:10110000BE019C01B0016E616E00696E66006F7673
:1011100066002C000D0A0044697374616E636520DB
:1011200066726F6D20746865206F626A65637420F3
:081130003D200020636D00006A
:107E0000112484B714BE81FFF0D085E080938100F7
:107E100082E08093C00088E18093C10086E0809377
:107E2000C20080E18093C4008EE0C9D0259A86E02C
:107E300020E33CEF91E0309385002093840096BBD3
:107E4000B09BFECF1D9AA8958150A9F7CC24DD24C4
:107E500088248394B5E0AB2EA1E19A2EF3E0BF2EE7
:107E6000A2D0813461F49FD0082FAFD0023811F036
:107E7000013811F484E001C083E08DD089C08234E0
:107E800011F484E103C0853419F485E0A6D080C0E4
:107E9000853579F488D0E82EFF2485D0082F10E0AE
:107EA000102F00270E291F29000F111F8ED06801E7
:107EB0006FC0863521F484E090D080E0DECF843638
:107EC00009F040C070D06FD0082F6DD080E0C81688
:107ED00080E7D80618F4F601B7BEE895C0E0D1E017
:107EE00062D089930C17E1F7F0E0CF16F0E7DF06D8
:107EF00018F0F601B7BEE89568D007B600FCFDCFD4
:107F0000A601A0E0B1E02C9130E011968C91119780
:107F100090E0982F8827822B932B1296FA010C0160
:107F200087BEE89511244E5F5F4FF1E0A038BF0790
:107F300051F7F601A7BEE89507B600FCFDCF97BE46
:107F4000E89526C08437B1F42ED02DD0F82E2BD052
:107F50003CD0F601EF2C8F010F5F1F4F84911BD097
:107F6000EA94F801C1F70894C11CD11CFA94CF0C13
:107F7000D11C0EC0853739F428D08EE10CD085E9AC
:107F80000AD08FE07ACF813511F488E018D01DD067
:107F900080E101D065CF982F8091C00085FFFCCF94
:107FA0009093C60008958091C00087FFFCCF809118
:107FB000C00084FD01C0A8958091C6000895E0E648
:107FC000F0E098E1908380830895EDDF803219F02E
:107FD00088E0F5DFFFCF84E1DECF1F93182FE3DFCA
:107FE0001150E9F7F2DF1F91089580E0E8DFEE27F6
:047FF000FF270994CA
:027FFE00040479
:00000001FF
