:100000000C9462000C948A000C948A000C948A0070
:100010000C948A000C948A000C948A000C948A0038
:100020000C948A000C948A000C948A000C948A0028
:100030000C948A000C948A000C948A000C948A0018
:100040000C9431020C948A000C948A000C948A005F
:100050000C948A000C948A000C948A000C948A00F8
:100060000C947B020C948A000000000024002700FE
:100070002A000000000023002600290000000000E4
:10008000250028002B0004040404040404040202D4
:100090000202020203030303030301020408102007
:1000A0004080010204081020010204081020000012
:1000B0000008000201000003040700000000000027
:1000C0000000430511241FBECFEFD8E0DEBFCDBF37
:1000D00011E0A0E0B1E0E8EBFAE002C005900D927B
:1000E000A632B107D9F721E0A6E2B1E001C01D9226
:1000F000A53FB207E1F710E0C2E6D0E004C02197C7
:10010000FE010E945405C136D107C9F70E949A0327
:100110000C945A050C940000833081F028F481304F
:1001200099F08230A9F008958730A9F08830C9F09D
:100130008430B1F4809180008F7D03C08091800075
:100140008F7780938000089584B58F7784BD08955C
:1001500084B58F7DFBCF8091B0008F778093B00006
:1001600008958091B0008F7DF9CF1F93CF93DF93D7
:10017000282F30E0F901E255FF4F8491F901E6564E
:10018000FF4FD491F901EA57FF4FC491CC23A9F056
:10019000162F81110E948C00EC2FF0E0EE0FFF1F54
:1001A000E458FF4FA591B4918FB7F894EC911111D9
:1001B00008C0D095DE23DC938FBFDF91CF911F91D4
:1001C0000895DE2BF8CF3FB7F8948091F10190911C
:1001D000F201A091F301B091F40126B5A89B05C0EE
:1001E0002F3F19F00196A11DB11D3FBFBA2FA92FB6
:1001F000982F8827BC01CD01620F711D811D911DB3
:1002000042E0660F771F881F991F4A95D1F708951E
:100210000895089520916701260F3327331F213257
:100220003105ECF42091B601FC0190E080E024302F
:1002300069F082E00895A09167012191AC01495BCA
:100240005E4FA40FB52FB11D2C930196861798F31E
:1002500080916701680F6093670180E0089581E0F5
:1002600008951092B60181E08093B501109290013B
:1002700061E082E10E94B50061E083E10E94B50087
:10028000E9EBF0E080818E7F808380818D7F8083A9
:1002900088E48093B80085E48093BC000895CF93F0
:1002A000DF9391E0909346018823B9F0C091B800A4
:1002B000D091BA008091BC008A7B8093BC0060E042
:1002C00082E10E94B50060E083E10E94B5000E94D7
:1002D0003101D093BA00C093B800DF91CF91089557
:1002E0000895E0918F0180918E01E81730F4F0E0DD
:1002F000EA5DFE4F808190E008958FEF9FEF0895B3
:1003000090918F0180918E012FEF3FEF981748F465
:10031000E92FF0E0EA5DFE4F208130E09F5F90938F
:100320008F01C901089580918E0190918F01891BE1
:10033000990B0895CF92DF92EF92FF920F931F9344
:10034000CF93DF937C01CB018A012091BC01222352
:1003500089F0EB016B01C40ED51ECC15DD0569F0EB
:100360006991D701ED91FC910190F081E02DC701D9
:100370000995F3CF642F0E940A01C801DF91CF9144
:100380001F910F91FF90EF90DF90CF900895CF9342
:10039000DF931F92CDB7DEB769832091BC01222382
:1003A000F9F02091DF01203258F021E030E0FC012B
:1003B0003383228390E080E00F90DF91CF91089506
:1003C0008091BD01E82FF0E0E254FE4F99819083C7
:1003D0008F5F8093BD018093DF0181E090E0ECCFDF
:1003E00061E0CE0101960E940A01F7CF90E080E023
:1003F000089585ED8093BC008091B8019091B9017A
:10040000A091BA01B091BB010796A11DB11D23E0D7
:10041000B695A795979587952A95D1F72091BC0019
:1004200024FD03C01092B60108954091B801509187
:10043000B9016091BA017091BB01452B462B472B46
:1004400069F30097A105B10541F02AE22A95F1F779
:1004500000C00197A109B109E1CF8091B7010C94C7
:100460004F011F920F920FB60F9211242F933F93BB
:100470008F939F93AF93BF938091ED019091EE0185
:10048000A091EF01B091F0013091EC0123E0230F36
:100490002D3758F50196A11DB11D2093EC018093D5
:1004A000ED019093EE01A093EF01B093F0018091E4
:1004B000F1019091F201A091F301B091F401019644
:1004C000A11DB11D8093F1019093F201A093F3015E
:1004D000B093F401BF91AF919F918F913F912F9174
:1004E0000F900FBE0F901F90189526E8230F0296CD
:1004F000A11DB11DD2CF1F920F920FB60F921124E2
:100500002F933F934F935F936F937F938F939F931B
:10051000AF93BF93EF93FF938091B900887F8036AC
:1005200009F44AC0F0F5883209F4A7C018F5803103
:1005300009F49BC0B8F4882309F4F9C0883009F4A1
:1005400094C0FF91EF91BF91AF919F918F917F9157
:100550006F915F914F913F912F910F900FBE0F9030
:100560001F901895883109F488C0803251F7809324
:10057000B40114C0803409F49DC040F48033B9F351
:100580008833F9F68093B40185ECB0C0803509F466
:1005900085C0883509F496C0883499F60E94F9011F
:1005A000D0CF883909F48CC038F5883729F050F459
:1005B000883611F0803729F683E08093B6011092D7
:1005C000890157C0883809F47BC0803919F0803818
:1005D00009F0B7CF80918901803208F071C0E091B5
:1005E000890181E08E0F809389018091BB00F0E04A
:1005F000E759FE4F80833DC0803B39F0E0F4803AFC
:1006000009F479C0883A09F09CCF84E08093B60160
:100610001092680110926701E0918C01F0918D01B8
:1006200009958091670181110FC081E08093670176
:100630001092470109C0803C09F4A6CF883C09F418
:10064000A3CF883B09F07DCFE091680181E08E0F58
:1006500080936801F0E0E95BFE4F80818093BB00EE
:10066000909168018091670129C0809191018093E8
:10067000BB0085EC8093BC0064CF9091B301809166
:10068000B201981758F5E091B30181E08E0F809385
:10069000B301F0E0EE56FE4F8081E9CFE091B30167
:1006A00081E08E0F8093B3018091BB00F0E0EE56A5
:1006B000FE4F80839091B3018091B2019817C8F2E8
:1006C00085E8D8CFE091B30181E08E0F8093B3012C
:1006D0008091BB00F0E0EE56FE4F80838091B50123
:1006E00081115CCF81E08093900184EA8093BC000B
:1006F0001092B60126CF85EC8093BC001092B60113
:1007000080918901803230F4E0918901F0E0E7596D
:10071000FE4F10826091890170E0E0918A01F091B2
:100720008B0189E691E00995109289010ACF109218
:10073000B40134CF789484B5826084BD84B581607F
:1007400084BD85B5826085BD85B5816085BD80919C
:100750006E00816080936E00109281008091810014
:10076000826080938100809181008160809381000C
:10077000809180008160809380008091B1008460CE
:100780008093B1008091B00081608093B00080912F
:100790007A00846080937A0080917A0082608093EE
:1007A0007A0080917A00816080937A0080917A004B
:1007B000806880937A001092C10010928F0110928D
:1007C0008E011092BD011092DF010E94310188E07C
:1007D00091E090938D0180938C0189E091E090935A
:1007E0008B0180938A0188E08093BA00C7EAD0E049
:1007F000FE01249103E910E0F80184918823C9F0F7
:1008000090E0880F991FFC01E859FF4FA591B49122
:10081000FC01E458FF4F459154913FB7F8949C91E7
:10082000822F809598239C93FA019081892380835D
:100830003FBF332433942BEB822E20E0922E30E006
:10084000A32E30E0B32E22242A943092BC01F4E08F
:10085000F093DE011092BD011092DF01F40184914A
:10086000FE01F490F801E490E1107CC043E150E017
:1008700062E171E080EE91E00E949A016090DF01F8
:10088000F0E2F61508F4A3C07090DE010E94E300C8
:100890006B017C018091B601811174C022E020932C
:1008A000B6013092B5012092B4011092B30160926A
:1008B000B201EEEBF1E0A2E9B1E06812BAC0109229
:1008C000910180919101770C782A70929101809129
:1008D0009001813009F0B1C0109290010E94E300B4
:1008E0006B017C01809191018093BB008091B801E4
:1008F0009091B901A091BA01B091BB01892B8A2BCB
:100900008B2BA1F00E94E3004090B8015090B901F8
:100910006090BA017090BB016C197D098E099F0926
:10092000461657066806790608F44DC08091BC004B
:1009300083FDD8CF85EC8093BC000E94E3006B015F
:100940007C018091B601823009F47BC08091B401B2
:100950008F3F09F43CC08091B4018032C1F1809195
:10096000B40135C081110E948C00EE2DF0E0EE0F35
:10097000FF1FEE58FF4FA591B4918C91F82209F416
:1009800075CF7CCF8091B8019091B901A091BA0147
:10099000B091BB01892B8A2B8B2B09F47BCF0E9452
:1009A000E3002091B8013091B9014091BA01509112
:1009B000BB016C197D098E099F0926173707480767
:1009C000590708F067CF8091B7010E944F0110923C
:1009D000BD011092DF011092BC010E94E3002B01C7
:1009E0003C0184EFC82EDD24D394E12CF12C0E942D
:1009F000E3006419750986099709683E734081050B
:100A00009105A8F3F1E0CF1AD108E108F10828EE2A
:100A1000420E23E0521E611C711CC114D104E1047A
:100A2000F10429F7A114B10409F40FCF0E940000CA
:100A30000CCF91919D938F5F40CFE5EEE093BC008A
:100A40007CCF8091B8019091B901A091BA01B09189
:100A5000BB01892B8A2B8B2B09F473CF0E94E300F7
:100A60004090B8015090B9016090BA017090BB01FC
:100A70006C197D098E099F09461657066806790686
:100A800008F05FCFA0CFE0EEF1E01382128288EE93
:100A900093E0A0E0B0E084839583A683B78384E0ED
:100AA00091E0918380830895EE0FFF1F0590F491EC
:080AB000E02D0994F894FFCF3A
:100AB80000000000C7019A01F6017001930180014E
:100AC8007101536F6D656F6E65206973206F757462
:060AD80073696465200053
:00000001FF
