:100000000C9458000C9480000C9480000C94800098
:100010000C9480000C9480000C9480000C94800060
:100020000C9480000C9480000C9480000C94800050
:100030000C9480000C9480000C9480000C94800040
:100040000C945A040C9480000C94CA040C94A404DC
:100050000C9480000C9480000C9480000C94800020
:100060000C94FC040C948000000000002500280083
:100070002B00040404040404040402020202020229
:10008000030303030303010204081020408001025C
:1000900004081020010204081020000000080002DB
:1000A00001000003040700000000000000001B0620
:1000B00011241FBECFEFD8E0DEBFCDBF11E0A0E01E
:1000C000B1E0E4E4F5E102C005900D92AE35B10770
:1000D000D9F722E0AEE5B1E001C01D92AA3CB2071B
:1000E000E1F710E0C8E5D0E004C02197FE010E94CE
:1000F0009A0AC735D107C9F70E9454060C94A00A82
:100100000C94000090E0FC01E656FF4F2491FC01A6
:10011000EA57FF4F3491FC01EE58FF4FE491EE2374
:10012000C9F0222339F0233001F1A8F4213019F16C
:10013000223029F1F0E0EE0FFF1FE859FF4FA591A3
:10014000B4918FB7F894EC91611126C030953E239D
:100150003C938FBF08952730A9F02830C9F0243090
:1001600049F7809180008F7D03C0809180008F7758
:1001700080938000DFCF84B58F7784BDDBCF84B5DB
:100180008F7DFBCF8091B0008F778093B000D2CF6E
:100190008091B0008F7DF9CF3E2BDACF3FB7F89436
:1001A00080911D0290911E02A0911F02B091200229
:1001B00026B5A89B05C02F3F19F00196A11DB11DC2
:1001C0003FBFBA2FA92F982F8827BC01CD01620FFE
:1001D000711D811D911D42E0660F771F881F991FB9
:1001E0004A95D1F7089508950895AF92BF92CF929E
:1001F000DF92EF92FF920F931F93CF93DF936C01E7
:100200007B018B01040F151FEB015E01AE18BF08C7
:10021000C017D10759F06991D601ED91FC91019079
:10022000F081E02DC6010995892B79F7C501DF9191
:10023000CF911F910F91FF90EF90DF90CF90BF90E3
:10024000AF900895FC01538D448D252F30E0842F0D
:1002500090E0821B930B541710F0CF9608950197EE
:100260000895FC01918D828D981761F0A28DAE0FDB
:10027000BF2FB11D5D968C91928D9F5F9F73928F62
:1002800090E008958FEF9FEF0895FC01918D828D8E
:10029000981731F0828DE80FF11D858D90E008955B
:1002A0008FEF9FEF0895FC01918D228D892F90E0B3
:1002B000805C9F4F821B91098F739927089581E27B
:1002C00092E00E94530121E0892B09F420E0822F63
:1002D000089580E090E0892B29F00E945F01811150
:1002E0000C9400000895FC01A48DA80FB92FB11D36
:1002F000A35ABF4F2C91848D90E001968F7399275C
:10030000848FA689B7892C93A089B1898C91837039
:1003100080648C93938D848D981306C00288F38932
:10032000E02D80818F7D80830895EF92FF920F935F
:100330001F93CF93DF93EC0181E0888F9B8D8C8D91
:1003400098131AC0E889F989808185FF15C09FB785
:10035000F894EE89FF896083E889F9898081837048
:10036000806480839FBF81E090E0DF91CF911F91F7
:100370000F91FF90EF900895F62E0B8D10E00F5F18
:100380001F4F0F731127E02E8C8D8E110CC00FB6EE
:1003900007FCFACFE889F989808185FFF5CFCE0186
:1003A0000E947301F1CFEB8DEC0FFD2FF11DE35A8D
:1003B000FF4FF0829FB7F8940B8FEA89FB89808109
:1003C0008062CFCFCF93DF93EC01888D8823B9F083
:1003D000AA89BB89E889F9898C9185FD03C0808150
:1003E00086FD0DC00FB607FCF7CF8C9185FFF2CFCD
:1003F000808185FFEDCFCE010E947301E9CFDF91AF
:10040000CF91089520919F01260F3327331F21326A
:100410003105ECF42091EE01FC0190E080E0243005
:1004200069F082E00895A0919F012191AC014158AB
:100430005E4FA40FB52FB11D2C930196861798F32C
:1004400080919F01680F60939F0180E0089581E093
:1004500008951092EE0181E08093ED011092C801A1
:1004600061E082E10E94820061E083E10E948200FB
:10047000E9EBF0E080818E7F808380818D7F8083B7
:1004800088E48093B80085E48093BC000895CF93FE
:10049000DF9391E090937E018823B9F0C091B8007A
:1004A000D091BA008091BC008A7B8093BC0060E050
:1004B00082E10E94820060E083E10E9482000E944B
:1004C0002902D093BA00C093B800DF91CF9108956C
:1004D0000895E091C7018091C601E81730F4F0E07B
:1004E000E25AFE4F808190E008958FEF9FEF0895CC
:1004F0009091C7018091C6012FEF3FEF981748F404
:10050000E92FF0E0E25AFE4F208130E09F5F9093A8
:10051000C701C90108958091C6019091C701891B47
:10052000990B0895CF92DF92EF92FF920F931F9352
:10053000CF93DF937C01CB018A012091F401222328
:1005400089F0EB016B01C40ED51ECC15DD0569F0F9
:100550006991D701ED91FC910190F081E02DC701E7
:100560000995F3CF642F0E940202C801DF91CF9159
:100570001F910F91FF90EF90DF90CF900895CF9350
:10058000DF931F92CDB7DEB769832091F401222358
:10059000F9F020911702203258F021E030E0FC0100
:1005A0003383228390E080E00F90DF91CF91089514
:1005B0008091F501E82FF0E0EA50FE4F9981908399
:1005C0008F5F8093F5018093170281E090E0ECCF7C
:1005D00061E0CE0101960E940202F7CF90E080E038
:1005E0000895FB0101900020E9F73197AF01461B08
:1005F000570BDC01ED91FC910280F381E02D099411
:100600008F929F92AF92BF920F931F93CF93DF93DE
:10061000CDB7DEB7A1970FB6F894DEBF0FBECDBF42
:1006200019A2423008F44AE08E010F5D1F4F842E5C
:10063000912CB12CA12CA50194010E94780AE62FDF
:10064000B901CA01EA3004F5E05DD801EE938D01ED
:10065000232B242B252B79F790E080E0109729F0AD
:10066000BD0181E292E00E94F102A1960FB6F894DA
:10067000DEBF0FBECDBFDF91CF911F910F91BF9015
:10068000AF909F908F900895E95CDFCF4F925F927B
:100690006F927F928F929F92AF92BF92CF92DF9292
:1006A000EF92FF920F931F93CF936B017C01742EF7
:1006B000AC019B010E94730A64E271E0811126C0C3
:1006C00046015701E894B7F82FEF3FEF4FE75FE798
:1006D000C501B4010E94730A81110CC02FEF3FEFD6
:1006E0004FE75FE7C501B4010E94A90868E271E025
:1006F000181664F02FEF3FEF4FE75FE4C701B60134
:100700000E94010A1816ACF46CE271E081E292E0FA
:10071000CF911F910F91FF90EF90DF90CF90BF90FE
:10072000AF909F908F907F906F905F904F900C94C0
:10073000F1022FEF3FEF4FE75FECC701B6010E94D8
:10074000A90887FDE1CF20E030E0A901C701B6018B
:100750000E94A90810E000E087FF0AC06DE281E274
:1007600092E00E9495018C01F7FAF094F7F8F0946A
:10077000C0E060E070E080E09FE37C1641F020E0A4
:1007800030E040E251E40E94AE08CF5FF6CFA7010F
:1007900096010E943D082B013C010E9420094B015B
:1007A0005C014AE00E9400037C01E00EF11ECC23B4
:1007B000C1F1C501B4010E944F099B01AC01C30105
:1007C000B2010E943C084B015C016EE281E292E0C2
:1007D0000E949501E80EF91EC15018F120E030E0AA
:1007E00040E251E4C501B4010E94060A2B013C011C
:1007F0000E9420094B01B12CA12C4AE0C501B40193
:100800000E940003E80EF91EC501B4010E944F09C1
:100810009B01AC01C301B2010E943C084B015C0189
:10082000DBCFC701CF911F910F91FF90EF90DF9029
:10083000CF90BF90AF909F908F907F906F905F9080
:100840004F90089585ED8093BC008091F0019091C8
:10085000F101A091F201B091F3010796A11DB11D24
:1008600023E0B695A795979587952A95D1F720917E
:10087000BC0024FD03C01092EE0108954091F001E8
:100880005091F1016091F2017091F301452B462BDB
:10089000472B69F30097A105B10541F02AE22A959B
:1008A000F1F700C00197A109B109E1CF8091EF01F3
:1008B0000C9447021F920F920FB60F9211242F93A0
:1008C0003F938F939F93AF93BF9380911902909121
:1008D0001A02A0911B02B0911C023091180223E071
:1008E000230F2D3758F50196A11DB11D2093180235
:1008F0008093190290931A02A0931B02B0931C02DA
:1009000080911D0290911E02A0911F02B0912002C1
:100910000196A11DB11D80931D0290931E02A0930C
:100920001F02B0932002BF91AF919F918F913F9191
:100930002F910F900FBE0F901F90189526E8230F50
:100940000296A11DB11DD2CF1F920F920FB60F922A
:1009500011242F933F934F935F936F937F938F93C4
:100960009F93AF93BF93EF93FF9381E292E00E9436
:100970007301FF91EF91BF91AF919F918F917F9103
:100980006F915F914F913F912F910F900FBE0F90FC
:100990001F9018951F920F920FB60F9211242F934C
:1009A0008F939F93EF93FF93E0913102F091320286
:1009B0008081E0913702F091380282FD1BC0908166
:1009C00080913A028F5F8F7320913B02821741F032
:1009D000E0913A02F0E0EF5DFD4F958F80933A028F
:1009E000FF91EF919F918F912F910F900FBE0F90DC
:1009F0001F9018958081F4CF1F920F920FB60F921F
:100A000011242F933F934F935F936F937F938F9313
:100A10009F93AF93BF93EF93FF938091B900887F2B
:100A2000803609F44AC0F0F5883209F4A7C018F5F9
:100A3000803109F49BC0B8F4882309F4F9C08830E8
:100A400009F494C0FF91EF91BF91AF919F918F9165
:100A50007F916F915F914F913F912F910F900FBEBA
:100A60000F901F901895883109F488C0803251F793
:100A70008093EC0114C0803409F49DC040F48033AD
:100A8000B9F38833F9F68093EC0185ECB0C080357A
:100A900009F485C0883509F496C0883499F60E9417
:100AA0002204D0CF883909F48CC038F5883729F072
:100AB00050F4883611F0803729F683E08093EE01F8
:100AC0001092C10157C0883809F47BC0803919F0F1
:100AD000803809F0B7CF8091C101803208F071C031
:100AE000E091C10181E08E0F8093C1018091BB0034
:100AF000F0E0EF55FE4F80833DC0803B39F0E0F4DD
:100B0000803A09F479C0883A09F09CCF84E0809358
:100B1000EE011092A00110929F01E091C401F091AA
:100B2000C501099580919F0181110FC081E08093DB
:100B30009F0110927F0109C0803C09F4A6CF883C38
:100B400009F4A3CF883B09F07DCFE091A00181E0BB
:100B50008E0F8093A001F0E0E158FE4F80818093DA
:100B6000BB009091A00180919F0129C08091C90193
:100B70008093BB0085EC8093BC0064CF9091EB0127
:100B80008091EA01981758F5E091EB0181E08E0F12
:100B90008093EB01F0E0E653FE4F8081E9CFE091D6
:100BA000EB0181E08E0F8093EB018091BB00F0E0C0
:100BB000E653FE4F80839091EB018091EA019817F4
:100BC000C8F285E8D8CFE091EB0181E08E0F8093E9
:100BD000EB018091BB00F0E0E653FE4F80838091F3
:100BE000ED0181115CCF81E08093C80184EA80939C
:100BF000BC001092EE0126CF85EC8093BC001092D1
:100C0000EE018091C101803230F4E091C101F0E049
:100C1000EF55FE4F10826091C10170E0E091C2017A
:100C2000F091C30181EA91E009951092C1010ACFC8
:100C30001092EC0134CFE1E2F2E01382128288EEEE
:100C400093E0A0E0B0E084839583A683B78324E09B
:100C500031E03183208325EC30E03587248724EC94
:100C600030E03787268720EC30E0318B208B21EC79
:100C700030E0338B228B22EC30E0358B248B26EC5A
:100C800030E0378B268B118E128E138E148EEEEB86
:100C9000F2E01382128284839583A683B78386E170
:100CA00091E0918380830895789484B5826084BDB7
:100CB00084B5816084BD85B5826085BD85B5816060
:100CC00085BD80916E00816080936E0010928100DE
:100CD0008091810082608093810080918100816099
:100CE000809381008091800081608093800080915A
:100CF000B10084608093B1008091B00081608093E6
:100D0000B00080917A00846080937A0080917A00AC
:100D1000826080937A0080917A00816080937A006B
:100D200080917A00806880937A001092C1001092BE
:100D3000C7011092C6010E94290283EF90E09093B0
:100D4000C5018093C40184EF90E09093C301809328
:100D5000C20188E08093BA00E0913102F091320242
:100D600082E08083E0912D02F0912E021082E091CA
:100D70002F02F09130028FEC808310923902E091C3
:100D80003502F091360286E08083E0913302F091E3
:100D90003402808180618083E0913302F0913402DB
:100DA000808188608083E0913302F09134028081F9
:100DB00080688083E0913302F091340280818F7DDE
:100DC000808311E094E0492E00E425EE722E35EC8C
:100DD000632EC0E0D0E055245A941093F401409261
:100DE00016021092F5011092170200937C00809178
:100DF0007A00806480937A0080917A0086FDFCCF2F
:100E00006091780070917900072E000C880B990B87
:100E10000E9451094B015C0120E030E040EA50E4BF
:100E20000E94060A20E030EC4FE754E40E94AE082E
:100E30006B017C0160E371E081E292E00E94F102CB
:100E400042E0C501B4010E9446036AE371E081E219
:100E500092E00E94F10242E0C701B6010E944603FF
:100E600065E471E081E292E00E94F10220E030E06E
:100E700040E450E4C701B6010E94010A181634F498
:100E800068E471E08EEB92E00E94F102E0901702BC
:100E900020E22E1508F491C0F09016020E94CE00B8
:100EA0004B015C018091EE01811162C082E0809370
:100EB000EE011093ED015092EC011092EB01E092E3
:100EC000EA01A6EFB1E0EAECF1E080E0E812ABC0A5
:100ED0001092C9018091C901FF0CF82AF092C90152
:100EE0008091C801813009F0A2C01092C8010E940F
:100EF000CE006B017C018091C9018093BB00809181
:100F0000F0019091F101A091F201B091F301892BD0
:100F10008A2B8B2B99F00E94CE008090F00190904C
:100F2000F101A090F201B090F3016C197D098E09D6
:100F30009F0986169706A806B906D8F18091BC00CD
:100F400083FDD9CF6092BC000E94CE006B017C0172
:100F50008091EE01823009F46DC08091EC018F3FE9
:100F600061F18091EC01803241F18091EC0125C06A
:100F70008091F0019091F101A091F201B091F30103
:100F8000892B8A2B8B2B09F48DCF0E94CE002091C8
:100F9000F0013091F1014091F2015091F301681993
:100FA00079098A099B09261737074807590708F066
:100FB00079CF8091EF010E9447021092F5011092C3
:100FC00017021092F4010E94CE006B017C018CE2AA
:100FD000882E99249394A12CB12C0E94CE006C19D8
:100FE0007D098E099F09683E734081059105A8F32C
:100FF00081E0881A9108A108B10828EEC20E23E00A
:10100000D21EE11CF11C81149104A104B10429F742
:10101000209709F4E2CE0E945F01882309F4DDCE17
:101020000E940000DACE9D9191938F5F4FCF709216
:10103000BC008ACF8091F0019091F101A091F20162
:10104000B091F301892B8A2B8B2B09F481CF0E945D
:10105000CE008090F0019090F101A090F201B0904C
:10106000F3016C197D098E099F0986169706A8065B
:10107000B90608F06DCF9DCF5058BB27AA270E9414
:1010800054080C94C7090E94B90938F00E94C0099D
:1010900020F039F49F3F19F426F40C94B6090EF4AD
:1010A000E095E7FB0C94B009E92F0E94D80958F3AA
:1010B000BA17620773078407950720F079F4A6F53D
:1010C0000C94FA090EF4E0950B2EBA2FA02D0B010B
:1010D000B90190010C01CA01A0011124FF27591B7D
:1010E00099F0593F50F4503E68F11A16F040A22F83
:1010F000232F342F4427585FF3CF469537952795F4
:10110000A795F0405395C9F77EF41F16BA0B620BF2
:10111000730B840BBAF09150A1F0FF0FBB1F661F39
:10112000771F881FC2F70EC0BA0F621F731F841F7C
:1011300048F4879577956795B795F7959E3F08F0A2
:10114000B0CF9395880F08F09927EE0F9795879564
:1011500008950E948C0908F481E008950E94C20855
:101160000C94C7090E94C00958F00E94B90940F0C8
:1011700029F45F3F29F00C94B00951110C94FB093C
:101180000C94B6090E94D80968F39923B1F355234A
:1011900091F3951B550BBB27AA276217730784078A
:1011A00038F09F5F5F4F220F331F441FAA1FA9F320
:1011B00035D00E2E3AF0E0E832D091505040E6950E
:1011C000001CCAF72BD0FE2F29D0660F771F881F6F
:1011D000BB1F261737074807AB07B0E809F0BB0B62
:1011E000802DBF01FF2793585F4F3AF09E3F510576
:1011F00078F00C94B0090C94FB095F3FE4F3983E3F
:10120000D4F3869577956795B795F7959F5FC9F75E
:10121000880F911D9695879597F90895E1E0660FDF
:10122000771F881FBB1F621773078407BA0720F058
:10123000621B730B840BBA0BEE1F88F7E0950895C1
:101240000E94E00988F09F5798F0B92F9927B7516D
:10125000B0F0E1F0660F771F881F991F1AF0BA955A
:10126000C9F714C0B13091F00E94FA09B1E00895B5
:101270000C94FA09672F782F8827B85F39F0B93FA7
:10128000CCF3869577956795B395D9F73EF490950D
:101290008095709561957F4F8F4F9F4F0895E8948B
:1012A00009C097FB3EF490958095709561957F4FAE
:1012B0008F4F9F4F9923A9F0F92F96E9BB2793955C
:1012C000F695879577956795B795F111F8CFFAF46C
:1012D000BB0F11F460FF1BC06F5F7F4F8F4F9F4F9D
:1012E00016C0882311F096E911C0772321F09EE8FB
:1012F000872F762F05C0662371F096E8862F70E061
:1013000060E02AF09A95660F771F881FDAF7880F3A
:101310009695879597F90895990F0008550FAA0B90
:10132000E0E8FEEF16161706E807F907C0F01216F8
:101330001306E407F50798F0621B730B840B950BFB
:1013400039F40A2661F0232B242B252B21F4089550
:101350000A2609F4A140A6958FEF811D811D0895ED
:1013600097F99F6780E870E060E008959FEF80EC58
:10137000089500240A9416161706180609060895FB
:1013800000240A9412161306140605060895092E61
:101390000394000C11F4882352F0BB0F40F4BF2BD0
:1013A00011F460FF04C06F5F7F4F8F4F9F4F089510
:1013B00057FD9058440F551F59F05F3F71F0479506
:1013C000880F97FB991F61F09F3F79F087950895EB
:1013D000121613061406551FF2CF4695F1DF08C00A
:1013E000161617061806991FF1CF86957105610527
:1013F00008940895E894BB2766277727CB0197F9CF
:1014000008950E948C0908F48FEF08950E94190A2C
:101410000C94C7090E94B90938F00E94C00920F055
:10142000952311F00C94B0090C94B60911240C9476
:10143000FB090E94D80970F3959FC1F3950F50E006
:10144000551F629FF001729FBB27F00DB11D639F76
:10145000AA27F00DB11DAA1F649F6627B00DA11D1C
:10146000661F829F2227B00DA11D621F739FB00DC2
:10147000A11D621F839FA00D611D221F749F332732
:10148000A00D611D231F849F600D211D822F762FCB
:101490006A2F11249F5750409AF0F1F088234AF0A8
:1014A000EE0FFF1FBB1F661F771F881F9150504014
:1014B000A9F79E3F510580F00C94B0090C94FB09EC
:1014C0005F3FE4F3983ED4F3869577956795B7959B
:1014D000F795E7959F5FC1F7FE2B880F911D9695B5
:1014E000879597F908950E948C09880B990B0895A8
:1014F000A1E21A2EAA1BBB1BFD010DC0AA1FBB1F18
:10150000EE1FFF1FA217B307E407F50720F0A21B89
:10151000B30BE40BF50B661F771F881F991F1A94F6
:1015200069F760957095809590959B01AC01BD0120
:10153000CF010895EE0FFF1F0590F491E02D09945F
:04154000F894FFCF4D
:10154400000000009501F5002201E2015301310180
:10155400450100000000BF029202EE0268028B0205
:10156400780269026E616E00696E66006F766600CD
:101574004465676974616C3A20003B20416E616C7C
:101584006F673A20000D0A00416E616C6F67205648
:0E1594006F6C74616765203E203320560000A6
:00000001FF
