:100000000C945D000C9485000C9485000C94850084
:100010000C9485000C9485000C9485000C9485004C
:100020000C9485000C9485000C9485000C9485003C
:100030000C9485000C9485000C9485000C9485002C
:100040000C941A020C9485000C9485000C94850085
:100050000C9485000C9485000C9485000C9485000C
:100060000C9464020C94850000000000240027001A
:100070002A0000000000250028002B0004040404CE
:100080000404040402020202020203030303030342
:10009000010204081020408001020408102001021F
:1000A00004081020000000080002010000030407FB
:1000B00000000000000000002B0411241FBECFEF41
:1000C000D8E0DEBFCDBF11E0A0E0B1E0E8E8F8E0A5
:1000D00002C005900D92A231B107D9F721E0A2E14B
:1000E000B1E001C01D92A13CB207E1F710E0CDE5FF
:1000F000D0E004C02197FE010E943C04CC35D1071A
:10010000C9F70E9483030C9442040C94000090E011
:10011000FC01EC55FF4F2491FC01E057FF4F349157
:10012000FC01E458FF4FE491EE23C9F0222339F09B
:10013000233001F1A8F4213019F1223029F1F0E047
:10014000EE0FFF1FEE58FF4FA591B4918FB7F894B3
:10015000EC91611126C030953E233C938FBF0895EA
:100160002730A9F02830C9F0243049F78091800069
:100170008F7D03C0809180008F7780938000DFCFD8
:1001800084B58F7784BDDBCF84B58F7DFBCF809125
:10019000B0008F778093B000D2CF8091B0008F7D78
:1001A000F9CF3E2BDACF3FB7F8948091BD01909103
:1001B000BE01A091BF01B091C00126B5A89B05C0AA
:1001C0002F3F19F00196A11DB11D3FBFBA2FA92FD6
:1001D000982F8827BC01CD01620F711D811D911DD3
:1001E00042E0660F771F881F991F4A95D1F708953F
:1001F0000895CF93DF93AC01E091AA01F091AB0198
:100200003097F1F09091A9018091A8019817C0F062
:1002100090E0292F30E02617370754F4D901AE5E5D
:10022000BE4F240F351FE90128812C939F5FF1CF2A
:100230001092A9016093A801CB01DF91CF9109949D
:10024000DF91CF91089520915801260F3327331F56
:1002500021323105ECF420917C01FC0190E080E03A
:10026000243069F082E00895A09158012191AC01F9
:10027000485C5E4FA40FB52FB11D2C9301968617D5
:1002800098F380915801680F6093580180E00895B9
:1002900081E0089510927C0181E080937E011092AC
:1002A0007D0161E082E10E94870061E083E10E94BC
:1002B0008700E9EBF0E080818E7F808380818D7FF5
:1002C000808388E48093B80085E48093BC0008951F
:1002D0000895E091A9018091A801E81730F4F0E0B9
:1002E000EE5EFE4F808190E008958FEF9FEF0895BE
:1002F0009091A9018091A8012FEF3FEF981748F442
:10030000E92FF0E0EE5EFE4F208130E09F5F90939A
:10031000A901C90108958091A8019091A901891BA3
:10032000990B0895CF93DF93CB01EA01642F0E94CC
:100330002301CE01DF91CF910895CF93DF931F92D8
:10034000CDB7DEB7698361E0CE0101960E9423013B
:1003500081E090E00F90DF91CF91089590E080E0F0
:1003600008959091A8018091A901981759F08CEAFD
:1003700091E00E94780161E0892B09F460E08DE052
:100380000C9487000895CF93DF9385ED8093BC0094
:100390008091340190913501A0913601B0913701DF
:1003A0000796A11DB11D23E0B695A7959795879552
:1003B0002A95D1F72091BC0024FD03C010927C0146
:1003C00036C04091340150913501609136017091F1
:1003D0003701452B462B472B69F30097A105B10543
:1003E00041F02AE22A95F1F700C00197A109B1096D
:1003F000E1CF8091330191E0909332018823B9F0ED
:10040000C091B800D091BA008091BC008A7B8093E3
:10041000BC0060E082E10E94870060E083E10E940E
:1004200087000E944A01D093BA00C093B800DF91C0
:10043000CF9108951F920F920FB60F9211242F9310
:100440003F938F939F93AF93BF938091B901909106
:10045000BA01A091BB01B091BC013091B80123E079
:10046000230F2D3758F50196A11DB11D2093B8011A
:100470008093B9019093BA01A093BB01B093BC01E2
:100480008091BD019091BE01A091BF01B091C001CA
:100490000196A11DB11D8093BD019093BE01A09353
:1004A000BF01B093C001BF91AF919F918F913F91D8
:1004B0002F910F900FBE0F901F90189526E8230FD5
:1004C0000296A11DB11DD2CF1F920F920FB60F92AF
:1004D00011242F933F934F935F936F937F938F9349
:1004E0009F93AF93BF93EF93FF938091B900887F61
:1004F000803609F44AC0F0F5883209F4A7C018F52F
:10050000803109F49BC0B8F4882309F4F9C088301D
:1005100009F494C0FF91EF91BF91AF919F918F919A
:100520007F916F915F914F913F912F910F900FBEEF
:100530000F901F901895883109F488C0803251F7C8
:1005400080937B0114C0803409F49DC040F4803353
:10055000B9F38833F9F680937B0185ECB0C0803520
:1005600009F485C0883509F496C0883499F60E944C
:10057000C301D0CF883909F48CC038F5883729F009
:1005800050F4883611F0803729F683E080937C019F
:1005900010927A0157C0883809F47BC0803919F06D
:1005A000803809F0B7CF80917A01803208F071C0AD
:1005B000E0917A0181E08E0F80937A018091BB00F7
:1005C000F0E0E65AFE4F80833DC0803B39F0E0F416
:1005D000803A09F479C0883A09F09CCF84E080938E
:1005E0007C011092590110925801E091A401F09100
:1005F000A50109958091580181110FC081E0809378
:1006000058011092380109C0803C09F4A6CF883CFB
:1006100009F4A3CF883B09F07DCFE091590181E037
:100620008E0F80935901F0E0E85CFE4F808180934B
:10063000BB00909159018091580129C08091A1017E
:100640008093BB0085EC8093BC0064CF9091A001A7
:1006500080919F01981758F5E091A00181E08E0FDD
:100660008093A001F0E0E158FE4F8081E9CFE09156
:10067000A00181E08E0F8093A0018091BB00F0E08B
:10068000E158FE4F80839091A00180919F019817BF
:10069000C8F285E8D8CFE091A00181E08E0F809369
:1006A000A0018091BB00F0E0E158FE4F8083809173
:1006B0007E0181115CCF81E080937D0184EA80938B
:1006C000BC0010927C0126CF85EC8093BC00109278
:1006D0007C0180917A01803230F4E0917A01F0E07F
:1006E000E65AFE4F108260917A0170E0E091A2011B
:1006F000F091A3018AE591E0099510927A010ACF61
:1007000010927B0134CF789484B5826084BD84B527
:10071000816084BD85B5826085BD85B5816085BDFC
:1007200080916E00816080936E00109281008091B4
:10073000810082608093810080918100816080933C
:100740008100809180008160809380008091B10061
:1007500084608093B1008091B00081608093B0008C
:1007600080917A00846080937A0080917A00826020
:1007700080937A0080917A00816080937A008091E2
:100780007A00806880937A001092C1001092A901CB
:100790001092A8011092A7011092A6010E944A018E
:1007A00088EF90E09093A5018093A40189EF90E0F9
:1007B0009093A3018093A20188E08093BA00EDE9B1
:1007C000F0E02491E9E8F0E08491882399F090E04A
:1007D000880F991FFC01E859FF4FA591B491FC01C6
:1007E000EE58FF4F859194918FB7F894EC91E22BDE
:1007F000EC938FBF81EB91E09093AB018093AA01C2
:10080000C0E0D0E00E94D3004B015C0184E6C82E1A
:10081000D12CE12CF12C0E94D300681979098A09A6
:100820009B09683E734081059105A8F321E0C21A37
:10083000D108E108F10888EE880E83E0981EA11C1B
:10084000B11CC114D104E104F10429F72097D1F2BD
:100850000E940000D7CFECEAF1E01382128288EE0A
:1008600093E0A0E0B0E084839583A683B78384E01F
:1008700091E0918380830895EE0FFF1F0590F4911E
:08088000E02D0994F894FFCF6C
:10088800000000009D019201AE0168018B01780112
:020898006901F4
:00000001FF
